{
  "contractName": "MyTunes",
  "abi": [
    {
      "inputs": [],
      "stateMutability": "nonpayable",
      "type": "constructor"
    },
    {
      "anonymous": false,
      "inputs": [
        {
          "indexed": true,
          "internalType": "uint256",
          "name": "songId",
          "type": "uint256"
        },
        {
          "indexed": true,
          "internalType": "address",
          "name": "buyer",
          "type": "address"
        }
      ],
      "name": "SongPurchasedBy",
      "type": "event"
    },
    {
      "anonymous": false,
      "inputs": [
        {
          "indexed": true,
          "internalType": "uint256",
          "name": "songId",
          "type": "uint256"
        },
        {
          "indexed": false,
          "internalType": "string",
          "name": "ipfsHash",
          "type": "string"
        },
        {
          "indexed": true,
          "internalType": "address",
          "name": "artist",
          "type": "address"
        }
      ],
      "name": "SongUploaded",
      "type": "event"
    },
    {
      "inputs": [
        {
          "internalType": "address",
          "name": "",
          "type": "address"
        }
      ],
      "name": "balances",
      "outputs": [
        {
          "internalType": "uint256",
          "name": "",
          "type": "uint256"
        }
      ],
      "stateMutability": "view",
      "type": "function",
      "constant": true
    },
    {
      "inputs": [
        {
          "internalType": "address",
          "name": "",
          "type": "address"
        },
        {
          "internalType": "uint256",
          "name": "",
          "type": "uint256"
        }
      ],
      "name": "hasPurchased",
      "outputs": [
        {
          "internalType": "bool",
          "name": "",
          "type": "bool"
        }
      ],
      "stateMutability": "view",
      "type": "function",
      "constant": true
    },
    {
      "inputs": [],
      "name": "nextSongId",
      "outputs": [
        {
          "internalType": "uint256",
          "name": "",
          "type": "uint256"
        }
      ],
      "stateMutability": "view",
      "type": "function",
      "constant": true
    },
    {
      "inputs": [],
      "name": "owner",
      "outputs": [
        {
          "internalType": "address",
          "name": "",
          "type": "address"
        }
      ],
      "stateMutability": "view",
      "type": "function",
      "constant": true
    },
    {
      "inputs": [
        {
          "internalType": "address",
          "name": "",
          "type": "address"
        },
        {
          "internalType": "uint256",
          "name": "",
          "type": "uint256"
        }
      ],
      "name": "purchasesBy",
      "outputs": [
        {
          "internalType": "uint256",
          "name": "",
          "type": "uint256"
        }
      ],
      "stateMutability": "view",
      "type": "function",
      "constant": true
    },
    {
      "inputs": [
        {
          "internalType": "uint256",
          "name": "",
          "type": "uint256"
        }
      ],
      "name": "songs",
      "outputs": [
        {
          "internalType": "uint256",
          "name": "id",
          "type": "uint256"
        },
        {
          "internalType": "string",
          "name": "title",
          "type": "string"
        },
        {
          "internalType": "uint256",
          "name": "price",
          "type": "uint256"
        },
        {
          "internalType": "string",
          "name": "ipfsHash",
          "type": "string"
        },
        {
          "internalType": "address",
          "name": "artist",
          "type": "address"
        }
      ],
      "stateMutability": "view",
      "type": "function",
      "constant": true
    },
    {
      "inputs": [
        {
          "internalType": "string",
          "name": "_title",
          "type": "string"
        },
        {
          "internalType": "uint256",
          "name": "_price",
          "type": "uint256"
        },
        {
          "internalType": "string",
          "name": "_ipfsHash",
          "type": "string"
        },
        {
          "internalType": "address[]",
          "name": "_contributors",
          "type": "address[]"
        },
        {
          "internalType": "uint256[]",
          "name": "_splits",
          "type": "uint256[]"
        }
      ],
      "name": "uploadSong",
      "outputs": [],
      "stateMutability": "nonpayable",
      "type": "function"
    },
    {
      "inputs": [
        {
          "internalType": "uint256",
          "name": "_songId",
          "type": "uint256"
        }
      ],
      "name": "purchaseSong",
      "outputs": [],
      "stateMutability": "payable",
      "type": "function",
      "payable": true
    },
    {
      "inputs": [],
      "name": "withdrawFunds",
      "outputs": [],
      "stateMutability": "nonpayable",
      "type": "function"
    },
    {
      "inputs": [
        {
          "internalType": "uint256",
          "name": "_songId",
          "type": "uint256"
        },
        {
          "internalType": "address",
          "name": "_buyer",
          "type": "address"
        }
      ],
      "name": "verifyPurchase",
      "outputs": [
        {
          "internalType": "bool",
          "name": "",
          "type": "bool"
        }
      ],
      "stateMutability": "view",
      "type": "function",
      "constant": true
    },
    {
      "inputs": [
        {
          "internalType": "uint256",
          "name": "_songId",
          "type": "uint256"
        }
      ],
      "name": "getSongDetails",
      "outputs": [
        {
          "internalType": "string",
          "name": "title",
          "type": "string"
        },
        {
          "internalType": "uint256",
          "name": "price",
          "type": "uint256"
        },
        {
          "internalType": "string",
          "name": "ipfsHash",
          "type": "string"
        },
        {
          "internalType": "address",
          "name": "artist",
          "type": "address"
        },
        {
          "internalType": "address[]",
          "name": "contributors",
          "type": "address[]"
        },
        {
          "internalType": "uint256[]",
          "name": "splits",
          "type": "uint256[]"
        }
      ],
      "stateMutability": "view",
      "type": "function",
      "constant": true
    }
  ],
  "bytecode": "0x608060405234801561001057600080fd5b5033600160006101000a81548173ffffffffffffffffffffffffffffffffffffffff021916908373ffffffffffffffffffffffffffffffffffffffff1602179055506001600081905550611d95806100696000396000f3fe60806040526004361061009c5760003560e01c80635c936fb2116100645780635c936fb2146101b057806377822fc2146101d95780637b3e4ce01461021b5780638da5cb5b14610237578063e158938114610262578063ee367b3e1461028d5761009c565b8063067ebc37146100a157806311923132146100de57806324600fc31461011b57806327e235e314610132578063304cff301461016f575b600080fd5b3480156100ad57600080fd5b506100c860048036038101906100c3919061128a565b6102ca565b6040516100d59190611887565b60405180910390f35b3480156100ea57600080fd5b506101056004803603810190610100919061128a565b6102fb565b604051610112919061170d565b60405180910390f35b34801561012757600080fd5b5061013061032a565b005b34801561013e57600080fd5b5061015960048036038101906101549190611261565b610440565b6040516101669190611887565b60405180910390f35b34801561017b57600080fd5b506101966004803603810190610191919061139d565b610458565b6040516101a79594939291906118a2565b60405180910390f35b3480156101bc57600080fd5b506101d760048036038101906101d291906112c6565b6105be565b005b3480156101e557600080fd5b5061020060048036038101906101fb919061139d565b6107f9565b6040516102129695949392919061174a565b60405180910390f35b6102356004803603810190610230919061139d565b610a5d565b005b34801561024357600080fd5b5061024c610e95565b60405161025991906116f2565b60405180910390f35b34801561026e57600080fd5b50610277610ebb565b6040516102849190611887565b60405180910390f35b34801561029957600080fd5b506102b460048036038101906102af91906113c6565b610ec1565b6040516102c1919061170d565b60405180910390f35b600560205281600052604060002081815481106102e657600080fd5b90600052602060002001600091509150505481565b60036020528160005260406000206020528060005260406000206000915091509054906101000a900460ff1681565b6000600460003373ffffffffffffffffffffffffffffffffffffffff1673ffffffffffffffffffffffffffffffffffffffff168152602001908152602001600020549050600081116103b1576040517f08c379a00000000000000000000000000000000000000000000000000000000081526004016103a8906117e7565b60405180910390fd5b6000600460003373ffffffffffffffffffffffffffffffffffffffff1673ffffffffffffffffffffffffffffffffffffffff168152602001908152602001600020819055503373ffffffffffffffffffffffffffffffffffffffff166108fc829081150290604051600060405180830381858888f1935050505015801561043c573d6000803e3d6000fd5b5050565b60046020528060005260406000206000915090505481565b600260205280600052604060002060009150905080600001549080600101805461048190611be9565b80601f01602080910402602001604051908101604052809291908181526020018280546104ad90611be9565b80156104fa5780601f106104cf576101008083540402835291602001916104fa565b820191906000526020600020905b8154815290600101906020018083116104dd57829003601f168201915b50505050509080600201549080600301805461051590611be9565b80601f016020809104026020016040519081016040528092919081815260200182805461054190611be9565b801561058e5780601f106105635761010080835404028352916020019161058e565b820191906000526020600020905b81548152906001019060200180831161057157829003601f168201915b5050505050908060040160009054906101000a900473ffffffffffffffffffffffffffffffffffffffff16905085565b8051825114610602576040517f08c379a00000000000000000000000000000000000000000000000000000000081526004016105f990611867565b60405180910390fd5b6000805b825181101561067057828181518110610648577f4e487b7100000000000000000000000000000000000000000000000000000000600052603260045260246000fd5b60200260200101518261065b9190611a4a565b9150808061066890611c1b565b915050610606565b5060648111156106b5576040517f08c379a00000000000000000000000000000000000000000000000000000000081526004016106ac90611807565b60405180910390fd5b6000600260008054815260200190815260200160002090506000548160000181905550868160010190805190602001906106f0929190610f29565b5085816002018190555084816003019080519060200190610712929190610f29565b50338160040160006101000a81548173ffffffffffffffffffffffffffffffffffffffff021916908373ffffffffffffffffffffffffffffffffffffffff1602179055508381600501908051906020019061076e929190610faf565b5082816006019080519060200190610787929190611039565b503373ffffffffffffffffffffffffffffffffffffffff166000547f0f51527b8481d2e813c53b79e08afe926eaf5556758625c2736fdc26ae21cbe3876040516107d19190611728565b60405180910390a36000808154809291906107eb90611c1b565b919050555050505050505050565b60606000606060006060806000600260008981526020019081526020016000209050806001018160020154826003018360040160009054906101000a900473ffffffffffffffffffffffffffffffffffffffff16846005018560060185805461086190611be9565b80601f016020809104026020016040519081016040528092919081815260200182805461088d90611be9565b80156108da5780601f106108af576101008083540402835291602001916108da565b820191906000526020600020905b8154815290600101906020018083116108bd57829003601f168201915b505050505095508380546108ed90611be9565b80601f016020809104026020016040519081016040528092919081815260200182805461091990611be9565b80156109665780601f1061093b57610100808354040283529160200191610966565b820191906000526020600020905b81548152906001019060200180831161094957829003601f168201915b50505050509350818054806020026020016040519081016040528092919081815260200182805480156109ee57602002820191906000526020600020905b8160009054906101000a900473ffffffffffffffffffffffffffffffffffffffff1673ffffffffffffffffffffffffffffffffffffffff16815260200190600101908083116109a4575b5050505050915080805480602002602001604051908101604052809291908181526020018280548015610a4057602002820191906000526020600020905b815481526020019060010190808311610a2c575b505050505090509650965096509650965096505091939550919395565b60006002600083815260200190815260200160002090506000816003018054610a8590611be9565b905011610ac7576040517f08c379a0000000000000000000000000000000000000000000000000000000008152600401610abe90611827565b60405180910390fd5b80600201543414610b0d576040517f08c379a0000000000000000000000000000000000000000000000000000000008152600401610b04906117c7565b60405180910390fd5b600360003373ffffffffffffffffffffffffffffffffffffffff1673ffffffffffffffffffffffffffffffffffffffff168152602001908152602001600020600083815260200190815260200160002060009054906101000a900460ff1615610bab576040517f08c379a0000000000000000000000000000000000000000000000000000000008152600401610ba290611847565b60405180910390fd5b6001600360003373ffffffffffffffffffffffffffffffffffffffff1673ffffffffffffffffffffffffffffffffffffffff168152602001908152602001600020600084815260200190815260200160002060006101000a81548160ff021916908315150217905550600560003373ffffffffffffffffffffffffffffffffffffffff1673ffffffffffffffffffffffffffffffffffffffff1681526020019081526020016000208290806001815401808255809150506001900390600052602060002001600090919091909150553373ffffffffffffffffffffffffffffffffffffffff16827f5f625dedd799630adc266210b8628483c1723c5eebe6dadae5ef462f15e4c7e960405160405180910390a3600034905060005b8260050180549050811015610e155760006064846006018381548110610d15577f4e487b7100000000000000000000000000000000000000000000000000000000600052603260045260246000fd5b906000526020600020015434610d2b9190611ad1565b610d359190611aa0565b90508060046000866005018581548110610d78577f4e487b7100000000000000000000000000000000000000000000000000000000600052603260045260246000fd5b9060005260206000200160009054906101000a900473ffffffffffffffffffffffffffffffffffffffff1673ffffffffffffffffffffffffffffffffffffffff1673ffffffffffffffffffffffffffffffffffffffff1681526020019081526020016000206000828254610dec9190611a4a565b925050819055508083610dff9190611b2b565b9250508080610e0d90611c1b565b915050610cc6565b5080600460008460040160009054906101000a900473ffffffffffffffffffffffffffffffffffffffff1673ffffffffffffffffffffffffffffffffffffffff1673ffffffffffffffffffffffffffffffffffffffff1681526020019081526020016000206000828254610e899190611a4a565b92505081905550505050565b600160009054906101000a900473ffffffffffffffffffffffffffffffffffffffff1681565b60005481565b6000600360008373ffffffffffffffffffffffffffffffffffffffff1673ffffffffffffffffffffffffffffffffffffffff168152602001908152602001600020600084815260200190815260200160002060009054906101000a900460ff16905092915050565b828054610f3590611be9565b90600052602060002090601f016020900481019282610f575760008555610f9e565b82601f10610f7057805160ff1916838001178555610f9e565b82800160010185558215610f9e579182015b82811115610f9d578251825591602001919060010190610f82565b5b509050610fab9190611086565b5090565b828054828255906000526020600020908101928215611028579160200282015b828111156110275782518260006101000a81548173ffffffffffffffffffffffffffffffffffffffff021916908373ffffffffffffffffffffffffffffffffffffffff16021790555091602001919060010190610fcf565b5b5090506110359190611086565b5090565b828054828255906000526020600020908101928215611075579160200282015b82811115611074578251825591602001919060010190611059565b5b5090506110829190611086565b5090565b5b8082111561109f576000816000905550600101611087565b5090565b60006110b66110b184611934565b611903565b905080838252602082019050828560208602820111156110d557600080fd5b60005b8581101561110557816110eb88826111b9565b8452602084019350602083019250506001810190506110d8565b5050509392505050565b600061112261111d84611960565b611903565b9050808382526020820190508285602086028201111561114157600080fd5b60005b858110156111715781611157888261124c565b845260208401935060208301925050600181019050611144565b5050509392505050565b600061118e6111898461198c565b611903565b9050828152602081018484840111156111a657600080fd5b6111b1848285611ba7565b509392505050565b6000813590506111c881611d31565b92915050565b600082601f8301126111df57600080fd5b81356111ef8482602086016110a3565b91505092915050565b600082601f83011261120957600080fd5b813561121984826020860161110f565b91505092915050565b600082601f83011261123357600080fd5b813561124384826020860161117b565b91505092915050565b60008135905061125b81611d48565b92915050565b60006020828403121561127357600080fd5b6000611281848285016111b9565b91505092915050565b6000806040838503121561129d57600080fd5b60006112ab858286016111b9565b92505060206112bc8582860161124c565b9150509250929050565b600080600080600060a086880312156112de57600080fd5b600086013567ffffffffffffffff8111156112f857600080fd5b61130488828901611222565b95505060206113158882890161124c565b945050604086013567ffffffffffffffff81111561133257600080fd5b61133e88828901611222565b935050606086013567ffffffffffffffff81111561135b57600080fd5b611367888289016111ce565b925050608086013567ffffffffffffffff81111561138457600080fd5b611390888289016111f8565b9150509295509295909350565b6000602082840312156113af57600080fd5b60006113bd8482850161124c565b91505092915050565b600080604083850312156113d957600080fd5b60006113e78582860161124c565b92505060206113f8858286016111b9565b9150509250929050565b600061140e8383611432565b60208301905092915050565b600061142683836116d4565b60208301905092915050565b61143b81611b5f565b82525050565b61144a81611b5f565b82525050565b600061145b826119dc565b6114658185611a17565b9350611470836119bc565b8060005b838110156114a15781516114888882611402565b9750611493836119fd565b925050600181019050611474565b5085935050505092915050565b60006114b9826119e7565b6114c38185611a28565b93506114ce836119cc565b8060005b838110156114ff5781516114e6888261141a565b97506114f183611a0a565b9250506001810190506114d2565b5085935050505092915050565b61151581611b71565b82525050565b6000611526826119f2565b6115308185611a39565b9350611540818560208601611bb6565b61154981611d20565b840191505092915050565b6000611561601183611a39565b91507f496e636f7272656374207061796d656e740000000000000000000000000000006000830152602082019050919050565b60006115a1601483611a39565b91507f4e6f2066756e647320746f2077697468647261770000000000000000000000006000830152602082019050919050565b60006115e1601a83611a39565b91507f546f74616c2073706c6974206d757374206265203c3d203130300000000000006000830152602082019050919050565b6000611621601383611a39565b91507f536f6e6720646f6573206e6f74206578697374000000000000000000000000006000830152602082019050919050565b6000611661601183611a39565b91507f416c7265616479207075726368617365640000000000000000000000000000006000830152602082019050919050565b60006116a1602083611a39565b91507f436f6e7472696275746f727320616e642073706c697473206d69736d617463686000830152602082019050919050565b6116dd81611b9d565b82525050565b6116ec81611b9d565b82525050565b60006020820190506117076000830184611441565b92915050565b6000602082019050611722600083018461150c565b92915050565b60006020820190508181036000830152611742818461151b565b905092915050565b600060c0820190508181036000830152611764818961151b565b905061177360208301886116e3565b8181036040830152611785818761151b565b90506117946060830186611441565b81810360808301526117a68185611450565b905081810360a08301526117ba81846114ae565b9050979650505050505050565b600060208201905081810360008301526117e081611554565b9050919050565b6000602082019050818103600083015261180081611594565b9050919050565b60006020820190508181036000830152611820816115d4565b9050919050565b6000602082019050818103600083015261184081611614565b9050919050565b6000602082019050818103600083015261186081611654565b9050919050565b6000602082019050818103600083015261188081611694565b9050919050565b600060208201905061189c60008301846116e3565b92915050565b600060a0820190506118b760008301886116e3565b81810360208301526118c9818761151b565b90506118d860408301866116e3565b81810360608301526118ea818561151b565b90506118f96080830184611441565b9695505050505050565b6000604051905081810181811067ffffffffffffffff8211171561192a57611929611cf1565b5b8060405250919050565b600067ffffffffffffffff82111561194f5761194e611cf1565b5b602082029050602081019050919050565b600067ffffffffffffffff82111561197b5761197a611cf1565b5b602082029050602081019050919050565b600067ffffffffffffffff8211156119a7576119a6611cf1565b5b601f19601f8301169050602081019050919050565b6000819050602082019050919050565b6000819050602082019050919050565b600081519050919050565b600081519050919050565b600081519050919050565b6000602082019050919050565b6000602082019050919050565b600082825260208201905092915050565b600082825260208201905092915050565b600082825260208201905092915050565b6000611a5582611b9d565b9150611a6083611b9d565b9250827fffffffffffffffffffffffffffffffffffffffffffffffffffffffffffffffff03821115611a9557611a94611c64565b5b828201905092915050565b6000611aab82611b9d565b9150611ab683611b9d565b925082611ac657611ac5611c93565b5b828204905092915050565b6000611adc82611b9d565b9150611ae783611b9d565b9250817fffffffffffffffffffffffffffffffffffffffffffffffffffffffffffffffff0483118215151615611b2057611b1f611c64565b5b828202905092915050565b6000611b3682611b9d565b9150611b4183611b9d565b925082821015611b5457611b53611c64565b5b828203905092915050565b6000611b6a82611b7d565b9050919050565b60008115159050919050565b600073ffffffffffffffffffffffffffffffffffffffff82169050919050565b6000819050919050565b82818337600083830152505050565b60005b83811015611bd4578082015181840152602081019050611bb9565b83811115611be3576000848401525b50505050565b60006002820490506001821680611c0157607f821691505b60208210811415611c1557611c14611cc2565b5b50919050565b6000611c2682611b9d565b91507fffffffffffffffffffffffffffffffffffffffffffffffffffffffffffffffff821415611c5957611c58611c64565b5b600182019050919050565b7f4e487b7100000000000000000000000000000000000000000000000000000000600052601160045260246000fd5b7f4e487b7100000000000000000000000000000000000000000000000000000000600052601260045260246000fd5b7f4e487b7100000000000000000000000000000000000000000000000000000000600052602260045260246000fd5b7f4e487b7100000000000000000000000000000000000000000000000000000000600052604160045260246000fd5b6000601f19601f8301169050919050565b611d3a81611b5f565b8114611d4557600080fd5b50565b611d5181611b9d565b8114611d5c57600080fd5b5056fea2646970667358221220142e879b8aaa2dee3a3d77f2427831aac104f7971e7da71e77dbf3c46f974e9c64736f6c63430008000033",
  "immutableReferences": {},
  "source": "pragma solidity ^0.8.0;\n\ncontract MyTunes {\n    uint public nextSongId;\n    address public owner;\n\n    constructor() {\n        owner = msg.sender;\n        nextSongId = 1;\n    }\n\n    // Song info\n    struct Song {\n        uint id;\n        string title;\n        uint price; \n        string ipfsHash;\n        address artist;\n        address[] contributors;\n        uint[] splits; \n    }\n\n    // songId => Song\n    mapping(uint => Song) public songs;\n\n    // user => songId => purchased\n    mapping(address => mapping(uint => bool)) public hasPurchased;\n\n    // address => earnings\n    mapping(address => uint) public balances;\n\n    // address => songs\n    mapping(address => uint[]) public purchasesBy;\n\n    event SongPurchasedBy(uint indexed songId, address indexed buyer);\n\n    // Upload Song\n    event SongUploaded(uint indexed songId, string ipfsHash, address indexed artist);\n\nfunction uploadSong(\n    string memory _title,\n    uint _price,\n    string memory _ipfsHash,\n    address[] memory _contributors,\n    uint[] memory _splits\n) public {\n    require(_contributors.length == _splits.length, \"Contributors and splits mismatch\");\n\n    uint totalSplit = 0;\n    for (uint i = 0; i < _splits.length; i++) {\n        totalSplit += _splits[i];\n    }\n    require(totalSplit <= 100, \"Total split must be <= 100\");\n\n    Song storage song = songs[nextSongId];\n    song.id = nextSongId;\n    song.title = _title;\n    song.price = _price;\n    song.ipfsHash = _ipfsHash;\n    song.artist = msg.sender;\n    song.contributors = _contributors;\n    song.splits = _splits;\n\n    emit SongUploaded(nextSongId, _ipfsHash, msg.sender); // Log the song upload\n\n    nextSongId++;\n}\n\n\n    // Purchase Song\n    function purchaseSong(uint _songId) public payable {\n        Song storage song = songs[_songId];\n        require(bytes(song.ipfsHash).length > 0, \"Song does not exist\");\n        require(msg.value == song.price, \"Incorrect payment\");\n        require(!hasPurchased[msg.sender][_songId], \"Already purchased\");\n\n        hasPurchased[msg.sender][_songId] = true;\n        purchasesBy[msg.sender].push(_songId);\n        emit SongPurchasedBy(_songId, msg.sender);\n\n        uint remaining = msg.value;\n\n        // Distribute to contributors\n        for (uint i = 0; i < song.contributors.length; i++) {\n            uint share = (msg.value * song.splits[i]) / 100;\n            balances[song.contributors[i]] += share;\n            remaining -= share;\n        }\n\n        // Remaining to main artist\n        balances[song.artist] += remaining;\n    }\n\n    // Withdraw Funds\n    function withdrawFunds() public {\n        uint amount = balances[msg.sender];\n        require(amount > 0, \"No funds to withdraw\");\n\n        balances[msg.sender] = 0;\n        payable(msg.sender).transfer(amount);\n    }\n\n    // Verify Purchase\n    function verifyPurchase(uint _songId, address _buyer) public view returns (bool) {\n        return hasPurchased[_buyer][_songId];\n    }\n\n    // Get Song Details\n    function getSongDetails(uint _songId)\n        public\n        view\n        returns (\n            string memory title,\n            uint price,\n            string memory ipfsHash,\n            address artist,\n            address[] memory contributors,\n            uint[] memory splits\n        )\n    {\n        Song storage song = songs[_songId];\n        return (\n            song.title,\n            song.price,\n            song.ipfsHash,\n            song.artist,\n            song.contributors,\n            song.splits\n        );\n    }\n}\n",
  "sourcePath": "/Users/jeans/Projects/DecentralizedMusicApp-1/smart-contracts/contracts/MyTunes.sol",
  "compiler": {
    "name": "solc",
    "version": "0.8.0+commit.c7dfd78e.Emscripten.clang"
  },
  "schemaVersion": "3.4.16",
  "updatedAt": "2025-04-28T06:43:34.724Z",
  "networkType": "ethereum",
  "devdoc": {
    "kind": "dev",
    "methods": {},
    "version": 1
  },
  "userdoc": {
    "kind": "user",
    "methods": {},
    "version": 1
  }
}