{
  "contractName": "MyTunes",
  "abi": [
    {
      "inputs": [],
      "stateMutability": "nonpayable",
      "type": "constructor"
    },
    {
      "inputs": [
        {
          "internalType": "address",
          "name": "",
          "type": "address"
        }
      ],
      "name": "balances",
      "outputs": [
        {
          "internalType": "uint256",
          "name": "",
          "type": "uint256"
        }
      ],
      "stateMutability": "view",
      "type": "function",
      "constant": true
    },
    {
      "inputs": [
        {
          "internalType": "address",
          "name": "",
          "type": "address"
        },
        {
          "internalType": "uint256",
          "name": "",
          "type": "uint256"
        }
      ],
      "name": "hasPurchased",
      "outputs": [
        {
          "internalType": "bool",
          "name": "",
          "type": "bool"
        }
      ],
      "stateMutability": "view",
      "type": "function",
      "constant": true
    },
    {
      "inputs": [],
      "name": "nextSongId",
      "outputs": [
        {
          "internalType": "uint256",
          "name": "",
          "type": "uint256"
        }
      ],
      "stateMutability": "view",
      "type": "function",
      "constant": true
    },
    {
      "inputs": [],
      "name": "owner",
      "outputs": [
        {
          "internalType": "address",
          "name": "",
          "type": "address"
        }
      ],
      "stateMutability": "view",
      "type": "function",
      "constant": true
    },
    {
      "inputs": [
        {
          "internalType": "uint256",
          "name": "",
          "type": "uint256"
        }
      ],
      "name": "songs",
      "outputs": [
        {
          "internalType": "uint256",
          "name": "id",
          "type": "uint256"
        },
        {
          "internalType": "string",
          "name": "title",
          "type": "string"
        },
        {
          "internalType": "uint256",
          "name": "price",
          "type": "uint256"
        },
        {
          "internalType": "string",
          "name": "ipfsHash",
          "type": "string"
        },
        {
          "internalType": "address",
          "name": "artist",
          "type": "address"
        }
      ],
      "stateMutability": "view",
      "type": "function",
      "constant": true
    },
    {
      "inputs": [
        {
          "internalType": "string",
          "name": "_title",
          "type": "string"
        },
        {
          "internalType": "uint256",
          "name": "_price",
          "type": "uint256"
        },
        {
          "internalType": "string",
          "name": "_ipfsHash",
          "type": "string"
        },
        {
          "internalType": "address[]",
          "name": "_contributors",
          "type": "address[]"
        },
        {
          "internalType": "uint256[]",
          "name": "_splits",
          "type": "uint256[]"
        }
      ],
      "name": "uploadSong",
      "outputs": [],
      "stateMutability": "nonpayable",
      "type": "function"
    },
    {
      "inputs": [
        {
          "internalType": "uint256",
          "name": "_songId",
          "type": "uint256"
        }
      ],
      "name": "purchaseSong",
      "outputs": [],
      "stateMutability": "payable",
      "type": "function",
      "payable": true
    },
    {
      "inputs": [],
      "name": "withdrawFunds",
      "outputs": [],
      "stateMutability": "nonpayable",
      "type": "function"
    },
    {
      "inputs": [
        {
          "internalType": "uint256",
          "name": "_songId",
          "type": "uint256"
        },
        {
          "internalType": "address",
          "name": "_buyer",
          "type": "address"
        }
      ],
      "name": "verifyPurchase",
      "outputs": [
        {
          "internalType": "bool",
          "name": "",
          "type": "bool"
        }
      ],
      "stateMutability": "view",
      "type": "function",
      "constant": true
    },
    {
      "inputs": [
        {
          "internalType": "uint256",
          "name": "_songId",
          "type": "uint256"
        }
      ],
      "name": "getSongDetails",
      "outputs": [
        {
          "internalType": "string",
          "name": "title",
          "type": "string"
        },
        {
          "internalType": "uint256",
          "name": "price",
          "type": "uint256"
        },
        {
          "internalType": "string",
          "name": "ipfsHash",
          "type": "string"
        },
        {
          "internalType": "address",
          "name": "artist",
          "type": "address"
        },
        {
          "internalType": "address[]",
          "name": "contributors",
          "type": "address[]"
        },
        {
          "internalType": "uint256[]",
          "name": "splits",
          "type": "uint256[]"
        }
      ],
      "stateMutability": "view",
      "type": "function",
      "constant": true
    }
  ],
  "bytecode": "0x608060405234801561001057600080fd5b5033600160006101000a81548173ffffffffffffffffffffffffffffffffffffffff021916908373ffffffffffffffffffffffffffffffffffffffff1602179055506001600081905550611bff806100696000396000f3fe6080604052600436106100915760003560e01c806377822fc21161005957806377822fc2146101915780637b3e4ce0146101d35780638da5cb5b146101ef578063e15893811461021a578063ee367b3e1461024557610091565b8063119231321461009657806324600fc3146100d357806327e235e3146100ea578063304cff30146101275780635c936fb214610168575b600080fd5b3480156100a257600080fd5b506100bd60048036038101906100b89190611116565b610282565b6040516100ca9190611599565b60405180910390f35b3480156100df57600080fd5b506100e86102b1565b005b3480156100f657600080fd5b50610111600480360381019061010c91906110ed565b6103c7565b60405161011e91906116f1565b60405180910390f35b34801561013357600080fd5b5061014e60048036038101906101499190611229565b6103df565b60405161015f95949392919061170c565b60405180910390f35b34801561017457600080fd5b5061018f600480360381019061018a9190611152565b610545565b005b34801561019d57600080fd5b506101b860048036038101906101b39190611229565b61072f565b6040516101ca969594939291906115b4565b60405180910390f35b6101ed60048036038101906101e89190611229565b610993565b005b3480156101fb57600080fd5b50610204610d21565b604051610211919061157e565b60405180910390f35b34801561022657600080fd5b5061022f610d47565b60405161023c91906116f1565b60405180910390f35b34801561025157600080fd5b5061026c60048036038101906102679190611252565b610d4d565b6040516102799190611599565b60405180910390f35b60036020528160005260406000206020528060005260406000206000915091509054906101000a900460ff1681565b6000600460003373ffffffffffffffffffffffffffffffffffffffff1673ffffffffffffffffffffffffffffffffffffffff16815260200190815260200160002054905060008111610338576040517f08c379a000000000000000000000000000000000000000000000000000000000815260040161032f90611651565b60405180910390fd5b6000600460003373ffffffffffffffffffffffffffffffffffffffff1673ffffffffffffffffffffffffffffffffffffffff168152602001908152602001600020819055503373ffffffffffffffffffffffffffffffffffffffff166108fc829081150290604051600060405180830381858888f193505050501580156103c3573d6000803e3d6000fd5b5050565b60046020528060005260406000206000915090505481565b600260205280600052604060002060009150905080600001549080600101805461040890611a53565b80601f016020809104026020016040519081016040528092919081815260200182805461043490611a53565b80156104815780601f1061045657610100808354040283529160200191610481565b820191906000526020600020905b81548152906001019060200180831161046457829003601f168201915b50505050509080600201549080600301805461049c90611a53565b80601f01602080910402602001604051908101604052809291908181526020018280546104c890611a53565b80156105155780601f106104ea57610100808354040283529160200191610515565b820191906000526020600020905b8154815290600101906020018083116104f857829003601f168201915b5050505050908060040160009054906101000a900473ffffffffffffffffffffffffffffffffffffffff16905085565b8051825114610589576040517f08c379a0000000000000000000000000000000000000000000000000000000008152600401610580906116d1565b60405180910390fd5b6000805b82518110156105f7578281815181106105cf577f4e487b7100000000000000000000000000000000000000000000000000000000600052603260045260246000fd5b6020026020010151826105e291906118b4565b915080806105ef90611a85565b91505061058d565b50606481111561063c576040517f08c379a000000000000000000000000000000000000000000000000000000000815260040161063390611671565b60405180910390fd5b600060026000805481526020019081526020016000209050600054816000018190555086816001019080519060200190610677929190610db5565b5085816002018190555084816003019080519060200190610699929190610db5565b50338160040160006101000a81548173ffffffffffffffffffffffffffffffffffffffff021916908373ffffffffffffffffffffffffffffffffffffffff160217905550838160050190805190602001906106f5929190610e3b565b508281600601908051906020019061070e929190610ec5565b5060008081548092919061072190611a85565b919050555050505050505050565b60606000606060006060806000600260008981526020019081526020016000209050806001018160020154826003018360040160009054906101000a900473ffffffffffffffffffffffffffffffffffffffff16846005018560060185805461079790611a53565b80601f01602080910402602001604051908101604052809291908181526020018280546107c390611a53565b80156108105780601f106107e557610100808354040283529160200191610810565b820191906000526020600020905b8154815290600101906020018083116107f357829003601f168201915b5050505050955083805461082390611a53565b80601f016020809104026020016040519081016040528092919081815260200182805461084f90611a53565b801561089c5780601f106108715761010080835404028352916020019161089c565b820191906000526020600020905b81548152906001019060200180831161087f57829003601f168201915b505050505093508180548060200260200160405190810160405280929190818152602001828054801561092457602002820191906000526020600020905b8160009054906101000a900473ffffffffffffffffffffffffffffffffffffffff1673ffffffffffffffffffffffffffffffffffffffff16815260200190600101908083116108da575b505050505091508080548060200260200160405190810160405280929190818152602001828054801561097657602002820191906000526020600020905b815481526020019060010190808311610962575b505050505090509650965096509650965096505091939550919395565b600060026000838152602001908152602001600020905060008160030180546109bb90611a53565b9050116109fd576040517f08c379a00000000000000000000000000000000000000000000000000000000081526004016109f490611691565b60405180910390fd5b80600201543414610a43576040517f08c379a0000000000000000000000000000000000000000000000000000000008152600401610a3a90611631565b60405180910390fd5b600360003373ffffffffffffffffffffffffffffffffffffffff1673ffffffffffffffffffffffffffffffffffffffff168152602001908152602001600020600083815260200190815260200160002060009054906101000a900460ff1615610ae1576040517f08c379a0000000000000000000000000000000000000000000000000000000008152600401610ad8906116b1565b60405180910390fd5b6001600360003373ffffffffffffffffffffffffffffffffffffffff1673ffffffffffffffffffffffffffffffffffffffff168152602001908152602001600020600084815260200190815260200160002060006101000a81548160ff021916908315150217905550600034905060005b8260050180549050811015610ca15760006064846006018381548110610ba1577f4e487b7100000000000000000000000000000000000000000000000000000000600052603260045260246000fd5b906000526020600020015434610bb7919061193b565b610bc1919061190a565b90508060046000866005018581548110610c04577f4e487b7100000000000000000000000000000000000000000000000000000000600052603260045260246000fd5b9060005260206000200160009054906101000a900473ffffffffffffffffffffffffffffffffffffffff1673ffffffffffffffffffffffffffffffffffffffff1673ffffffffffffffffffffffffffffffffffffffff1681526020019081526020016000206000828254610c7891906118b4565b925050819055508083610c8b9190611995565b9250508080610c9990611a85565b915050610b52565b5080600460008460040160009054906101000a900473ffffffffffffffffffffffffffffffffffffffff1673ffffffffffffffffffffffffffffffffffffffff1673ffffffffffffffffffffffffffffffffffffffff1681526020019081526020016000206000828254610d1591906118b4565b92505081905550505050565b600160009054906101000a900473ffffffffffffffffffffffffffffffffffffffff1681565b60005481565b6000600360008373ffffffffffffffffffffffffffffffffffffffff1673ffffffffffffffffffffffffffffffffffffffff168152602001908152602001600020600084815260200190815260200160002060009054906101000a900460ff16905092915050565b828054610dc190611a53565b90600052602060002090601f016020900481019282610de35760008555610e2a565b82601f10610dfc57805160ff1916838001178555610e2a565b82800160010185558215610e2a579182015b82811115610e29578251825591602001919060010190610e0e565b5b509050610e379190610f12565b5090565b828054828255906000526020600020908101928215610eb4579160200282015b82811115610eb35782518260006101000a81548173ffffffffffffffffffffffffffffffffffffffff021916908373ffffffffffffffffffffffffffffffffffffffff16021790555091602001919060010190610e5b565b5b509050610ec19190610f12565b5090565b828054828255906000526020600020908101928215610f01579160200282015b82811115610f00578251825591602001919060010190610ee5565b5b509050610f0e9190610f12565b5090565b5b80821115610f2b576000816000905550600101610f13565b5090565b6000610f42610f3d8461179e565b61176d565b90508083825260208201905082856020860282011115610f6157600080fd5b60005b85811015610f915781610f778882611045565b845260208401935060208301925050600181019050610f64565b5050509392505050565b6000610fae610fa9846117ca565b61176d565b90508083825260208201905082856020860282011115610fcd57600080fd5b60005b85811015610ffd5781610fe388826110d8565b845260208401935060208301925050600181019050610fd0565b5050509392505050565b600061101a611015846117f6565b61176d565b90508281526020810184848401111561103257600080fd5b61103d848285611a11565b509392505050565b60008135905061105481611b9b565b92915050565b600082601f83011261106b57600080fd5b813561107b848260208601610f2f565b91505092915050565b600082601f83011261109557600080fd5b81356110a5848260208601610f9b565b91505092915050565b600082601f8301126110bf57600080fd5b81356110cf848260208601611007565b91505092915050565b6000813590506110e781611bb2565b92915050565b6000602082840312156110ff57600080fd5b600061110d84828501611045565b91505092915050565b6000806040838503121561112957600080fd5b600061113785828601611045565b9250506020611148858286016110d8565b9150509250929050565b600080600080600060a0868803121561116a57600080fd5b600086013567ffffffffffffffff81111561118457600080fd5b611190888289016110ae565b95505060206111a1888289016110d8565b945050604086013567ffffffffffffffff8111156111be57600080fd5b6111ca888289016110ae565b935050606086013567ffffffffffffffff8111156111e757600080fd5b6111f38882890161105a565b925050608086013567ffffffffffffffff81111561121057600080fd5b61121c88828901611084565b9150509295509295909350565b60006020828403121561123b57600080fd5b6000611249848285016110d8565b91505092915050565b6000806040838503121561126557600080fd5b6000611273858286016110d8565b925050602061128485828601611045565b9150509250929050565b600061129a83836112be565b60208301905092915050565b60006112b28383611560565b60208301905092915050565b6112c7816119c9565b82525050565b6112d6816119c9565b82525050565b60006112e782611846565b6112f18185611881565b93506112fc83611826565b8060005b8381101561132d578151611314888261128e565b975061131f83611867565b925050600181019050611300565b5085935050505092915050565b600061134582611851565b61134f8185611892565b935061135a83611836565b8060005b8381101561138b57815161137288826112a6565b975061137d83611874565b92505060018101905061135e565b5085935050505092915050565b6113a1816119db565b82525050565b60006113b28261185c565b6113bc81856118a3565b93506113cc818560208601611a20565b6113d581611b8a565b840191505092915050565b60006113ed6011836118a3565b91507f496e636f7272656374207061796d656e740000000000000000000000000000006000830152602082019050919050565b600061142d6014836118a3565b91507f4e6f2066756e647320746f2077697468647261770000000000000000000000006000830152602082019050919050565b600061146d601a836118a3565b91507f546f74616c2073706c6974206d757374206265203c3d203130300000000000006000830152602082019050919050565b60006114ad6013836118a3565b91507f536f6e6720646f6573206e6f74206578697374000000000000000000000000006000830152602082019050919050565b60006114ed6011836118a3565b91507f416c7265616479207075726368617365640000000000000000000000000000006000830152602082019050919050565b600061152d6020836118a3565b91507f436f6e7472696275746f727320616e642073706c697473206d69736d617463686000830152602082019050919050565b61156981611a07565b82525050565b61157881611a07565b82525050565b600060208201905061159360008301846112cd565b92915050565b60006020820190506115ae6000830184611398565b92915050565b600060c08201905081810360008301526115ce81896113a7565b90506115dd602083018861156f565b81810360408301526115ef81876113a7565b90506115fe60608301866112cd565b818103608083015261161081856112dc565b905081810360a0830152611624818461133a565b9050979650505050505050565b6000602082019050818103600083015261164a816113e0565b9050919050565b6000602082019050818103600083015261166a81611420565b9050919050565b6000602082019050818103600083015261168a81611460565b9050919050565b600060208201905081810360008301526116aa816114a0565b9050919050565b600060208201905081810360008301526116ca816114e0565b9050919050565b600060208201905081810360008301526116ea81611520565b9050919050565b6000602082019050611706600083018461156f565b92915050565b600060a082019050611721600083018861156f565b818103602083015261173381876113a7565b9050611742604083018661156f565b818103606083015261175481856113a7565b905061176360808301846112cd565b9695505050505050565b6000604051905081810181811067ffffffffffffffff8211171561179457611793611b5b565b5b8060405250919050565b600067ffffffffffffffff8211156117b9576117b8611b5b565b5b602082029050602081019050919050565b600067ffffffffffffffff8211156117e5576117e4611b5b565b5b602082029050602081019050919050565b600067ffffffffffffffff82111561181157611810611b5b565b5b601f19601f8301169050602081019050919050565b6000819050602082019050919050565b6000819050602082019050919050565b600081519050919050565b600081519050919050565b600081519050919050565b6000602082019050919050565b6000602082019050919050565b600082825260208201905092915050565b600082825260208201905092915050565b600082825260208201905092915050565b60006118bf82611a07565b91506118ca83611a07565b9250827fffffffffffffffffffffffffffffffffffffffffffffffffffffffffffffffff038211156118ff576118fe611ace565b5b828201905092915050565b600061191582611a07565b915061192083611a07565b9250826119305761192f611afd565b5b828204905092915050565b600061194682611a07565b915061195183611a07565b9250817fffffffffffffffffffffffffffffffffffffffffffffffffffffffffffffffff048311821515161561198a57611989611ace565b5b828202905092915050565b60006119a082611a07565b91506119ab83611a07565b9250828210156119be576119bd611ace565b5b828203905092915050565b60006119d4826119e7565b9050919050565b60008115159050919050565b600073ffffffffffffffffffffffffffffffffffffffff82169050919050565b6000819050919050565b82818337600083830152505050565b60005b83811015611a3e578082015181840152602081019050611a23565b83811115611a4d576000848401525b50505050565b60006002820490506001821680611a6b57607f821691505b60208210811415611a7f57611a7e611b2c565b5b50919050565b6000611a9082611a07565b91507fffffffffffffffffffffffffffffffffffffffffffffffffffffffffffffffff821415611ac357611ac2611ace565b5b600182019050919050565b7f4e487b7100000000000000000000000000000000000000000000000000000000600052601160045260246000fd5b7f4e487b7100000000000000000000000000000000000000000000000000000000600052601260045260246000fd5b7f4e487b7100000000000000000000000000000000000000000000000000000000600052602260045260246000fd5b7f4e487b7100000000000000000000000000000000000000000000000000000000600052604160045260246000fd5b6000601f19601f8301169050919050565b611ba4816119c9565b8114611baf57600080fd5b50565b611bbb81611a07565b8114611bc657600080fd5b5056fea26469706673582212204c4eef3ced740df57ad5adde76215ca5b584c6fe35e11f6a471ce7d033d2c12964736f6c63430008000033",
  "immutableReferences": {},
  "source": "pragma solidity ^0.8.0;\n\ncontract MyTunes {\n    uint public nextSongId;\n    address public owner;\n\n    constructor() {\n        owner = msg.sender;\n        nextSongId = 1;\n    }\n\n    // Song info\n    struct Song {\n        uint id;\n        string title;\n        uint price; \n        string ipfsHash;\n        address artist;\n        address[] contributors;\n        uint[] splits; \n    }\n\n    // songId => Song\n    mapping(uint => Song) public songs;\n\n    // user => songId => purchased\n    mapping(address => mapping(uint => bool)) public hasPurchased;\n\n    // address => earnings\n    mapping(address => uint) public balances;\n\n    // Upload Song\n    function uploadSong(\n        string memory _title,\n        uint _price,\n        string memory _ipfsHash,\n        address[] memory _contributors,\n        uint[] memory _splits\n    ) public {\n        require(_contributors.length == _splits.length, \"Contributors and splits mismatch\");\n\n        uint totalSplit = 0;\n        for (uint i = 0; i < _splits.length; i++) {\n            totalSplit += _splits[i];\n        }\n        require(totalSplit <= 100, \"Total split must be <= 100\");\n\n        Song storage song = songs[nextSongId];\n        song.id = nextSongId;\n        song.title = _title;\n        song.price = _price;\n        song.ipfsHash = _ipfsHash;\n        song.artist = msg.sender;\n        song.contributors = _contributors;\n        song.splits = _splits;\n\n        nextSongId++;\n    }\n\n    // Purchase Song\n    function purchaseSong(uint _songId) public payable {\n        Song storage song = songs[_songId];\n        require(bytes(song.ipfsHash).length > 0, \"Song does not exist\");\n        require(msg.value == song.price, \"Incorrect payment\");\n        require(!hasPurchased[msg.sender][_songId], \"Already purchased\");\n\n        hasPurchased[msg.sender][_songId] = true;\n\n        uint remaining = msg.value;\n\n        // Distribute to contributors\n        for (uint i = 0; i < song.contributors.length; i++) {\n            uint share = (msg.value * song.splits[i]) / 100;\n            balances[song.contributors[i]] += share;\n            remaining -= share;\n        }\n\n        // Remaining to main artist\n        balances[song.artist] += remaining;\n    }\n\n    // Withdraw Funds\n    function withdrawFunds() public {\n        uint amount = balances[msg.sender];\n        require(amount > 0, \"No funds to withdraw\");\n\n        balances[msg.sender] = 0;\n        payable(msg.sender).transfer(amount);\n    }\n\n    // Verify Purchase\n    function verifyPurchase(uint _songId, address _buyer) public view returns (bool) {\n        return hasPurchased[_buyer][_songId];\n    }\n\n    // Get Song Details\n    function getSongDetails(uint _songId)\n        public\n        view\n        returns (\n            string memory title,\n            uint price,\n            string memory ipfsHash,\n            address artist,\n            address[] memory contributors,\n            uint[] memory splits\n        )\n    {\n        Song storage song = songs[_songId];\n        return (\n            song.title,\n            song.price,\n            song.ipfsHash,\n            song.artist,\n            song.contributors,\n            song.splits\n        );\n    }\n}\n",
  "sourcePath": "/home/osboxes/MyTunes/mytunes/smart-contracts/contracts/MyTunes.sol",
  "compiler": {
    "name": "solc",
    "version": "0.8.0+commit.c7dfd78e.Emscripten.clang"
  },
  "schemaVersion": "3.4.16",
  "updatedAt": "2025-04-18T04:45:52.970Z",
  "networkType": "ethereum",
  "devdoc": {
    "kind": "dev",
    "methods": {},
    "version": 1
  },
  "userdoc": {
    "kind": "user",
    "methods": {},
    "version": 1
  }
}