{
  "contractName": "MyTunes",
  "abi": [
    {
      "inputs": [],
      "stateMutability": "nonpayable",
      "type": "constructor"
    },
    {
      "anonymous": false,
      "inputs": [
        {
          "indexed": true,
          "internalType": "uint256",
          "name": "songId",
          "type": "uint256"
        },
        {
          "indexed": true,
          "internalType": "address",
          "name": "buyer",
          "type": "address"
        }
      ],
      "name": "SongPurchasedBy",
      "type": "event"
    },
    {
      "inputs": [
        {
          "internalType": "address",
          "name": "",
          "type": "address"
        }
      ],
      "name": "balances",
      "outputs": [
        {
          "internalType": "uint256",
          "name": "",
          "type": "uint256"
        }
      ],
      "stateMutability": "view",
      "type": "function",
      "constant": true
    },
    {
      "inputs": [
        {
          "internalType": "address",
          "name": "",
          "type": "address"
        },
        {
          "internalType": "uint256",
          "name": "",
          "type": "uint256"
        }
      ],
      "name": "hasPurchased",
      "outputs": [
        {
          "internalType": "bool",
          "name": "",
          "type": "bool"
        }
      ],
      "stateMutability": "view",
      "type": "function",
      "constant": true
    },
    {
      "inputs": [],
      "name": "nextSongId",
      "outputs": [
        {
          "internalType": "uint256",
          "name": "",
          "type": "uint256"
        }
      ],
      "stateMutability": "view",
      "type": "function",
      "constant": true
    },
    {
      "inputs": [],
      "name": "owner",
      "outputs": [
        {
          "internalType": "address",
          "name": "",
          "type": "address"
        }
      ],
      "stateMutability": "view",
      "type": "function",
      "constant": true
    },
    {
      "inputs": [
        {
          "internalType": "address",
          "name": "",
          "type": "address"
        },
        {
          "internalType": "uint256",
          "name": "",
          "type": "uint256"
        }
      ],
      "name": "purchasesBy",
      "outputs": [
        {
          "internalType": "uint256",
          "name": "",
          "type": "uint256"
        }
      ],
      "stateMutability": "view",
      "type": "function",
      "constant": true
    },
    {
      "inputs": [
        {
          "internalType": "uint256",
          "name": "",
          "type": "uint256"
        }
      ],
      "name": "songs",
      "outputs": [
        {
          "internalType": "uint256",
          "name": "id",
          "type": "uint256"
        },
        {
          "internalType": "string",
          "name": "title",
          "type": "string"
        },
        {
          "internalType": "uint256",
          "name": "price",
          "type": "uint256"
        },
        {
          "internalType": "string",
          "name": "ipfsHash",
          "type": "string"
        },
        {
          "internalType": "address",
          "name": "artist",
          "type": "address"
        }
      ],
      "stateMutability": "view",
      "type": "function",
      "constant": true
    },
    {
      "inputs": [
        {
          "internalType": "string",
          "name": "_title",
          "type": "string"
        },
        {
          "internalType": "uint256",
          "name": "_price",
          "type": "uint256"
        },
        {
          "internalType": "string",
          "name": "_ipfsHash",
          "type": "string"
        },
        {
          "internalType": "address[]",
          "name": "_contributors",
          "type": "address[]"
        },
        {
          "internalType": "uint256[]",
          "name": "_splits",
          "type": "uint256[]"
        }
      ],
      "name": "uploadSong",
      "outputs": [],
      "stateMutability": "nonpayable",
      "type": "function"
    },
    {
      "inputs": [
        {
          "internalType": "uint256",
          "name": "_songId",
          "type": "uint256"
        }
      ],
      "name": "purchaseSong",
      "outputs": [],
      "stateMutability": "payable",
      "type": "function",
      "payable": true
    },
    {
      "inputs": [],
      "name": "withdrawFunds",
      "outputs": [],
      "stateMutability": "nonpayable",
      "type": "function"
    },
    {
      "inputs": [
        {
          "internalType": "uint256",
          "name": "_songId",
          "type": "uint256"
        },
        {
          "internalType": "address",
          "name": "_buyer",
          "type": "address"
        }
      ],
      "name": "verifyPurchase",
      "outputs": [
        {
          "internalType": "bool",
          "name": "",
          "type": "bool"
        }
      ],
      "stateMutability": "view",
      "type": "function",
      "constant": true
    },
    {
      "inputs": [
        {
          "internalType": "uint256",
          "name": "_songId",
          "type": "uint256"
        }
      ],
      "name": "getSongDetails",
      "outputs": [
        {
          "internalType": "string",
          "name": "title",
          "type": "string"
        },
        {
          "internalType": "uint256",
          "name": "price",
          "type": "uint256"
        },
        {
          "internalType": "string",
          "name": "ipfsHash",
          "type": "string"
        },
        {
          "internalType": "address",
          "name": "artist",
          "type": "address"
        },
        {
          "internalType": "address[]",
          "name": "contributors",
          "type": "address[]"
        },
        {
          "internalType": "uint256[]",
          "name": "splits",
          "type": "uint256[]"
        }
      ],
      "stateMutability": "view",
      "type": "function",
      "constant": true
    }
  ],
  "bytecode": "0x608060405234801561001057600080fd5b5033600160006101000a81548173ffffffffffffffffffffffffffffffffffffffff021916908373ffffffffffffffffffffffffffffffffffffffff1602179055506001600081905550611d22806100696000396000f3fe60806040526004361061009c5760003560e01c80635c936fb2116100645780635c936fb2146101b057806377822fc2146101d95780637b3e4ce01461021b5780638da5cb5b14610237578063e158938114610262578063ee367b3e1461028d5761009c565b8063067ebc37146100a157806311923132146100de57806324600fc31461011b57806327e235e314610132578063304cff301461016f575b600080fd5b3480156100ad57600080fd5b506100c860048036038101906100c39190611239565b6102ca565b6040516100d59190611814565b60405180910390f35b3480156100ea57600080fd5b5061010560048036038101906101009190611239565b6102fb565b60405161011291906116bc565b60405180910390f35b34801561012757600080fd5b5061013061032a565b005b34801561013e57600080fd5b5061015960048036038101906101549190611210565b610440565b6040516101669190611814565b60405180910390f35b34801561017b57600080fd5b506101966004803603810190610191919061134c565b610458565b6040516101a795949392919061182f565b60405180910390f35b3480156101bc57600080fd5b506101d760048036038101906101d29190611275565b6105be565b005b3480156101e557600080fd5b5061020060048036038101906101fb919061134c565b6107a8565b604051610212969594939291906116d7565b60405180910390f35b6102356004803603810190610230919061134c565b610a0c565b005b34801561024357600080fd5b5061024c610e44565b60405161025991906116a1565b60405180910390f35b34801561026e57600080fd5b50610277610e6a565b6040516102849190611814565b60405180910390f35b34801561029957600080fd5b506102b460048036038101906102af9190611375565b610e70565b6040516102c191906116bc565b60405180910390f35b600560205281600052604060002081815481106102e657600080fd5b90600052602060002001600091509150505481565b60036020528160005260406000206020528060005260406000206000915091509054906101000a900460ff1681565b6000600460003373ffffffffffffffffffffffffffffffffffffffff1673ffffffffffffffffffffffffffffffffffffffff168152602001908152602001600020549050600081116103b1576040517f08c379a00000000000000000000000000000000000000000000000000000000081526004016103a890611774565b60405180910390fd5b6000600460003373ffffffffffffffffffffffffffffffffffffffff1673ffffffffffffffffffffffffffffffffffffffff168152602001908152602001600020819055503373ffffffffffffffffffffffffffffffffffffffff166108fc829081150290604051600060405180830381858888f1935050505015801561043c573d6000803e3d6000fd5b5050565b60046020528060005260406000206000915090505481565b600260205280600052604060002060009150905080600001549080600101805461048190611b76565b80601f01602080910402602001604051908101604052809291908181526020018280546104ad90611b76565b80156104fa5780601f106104cf576101008083540402835291602001916104fa565b820191906000526020600020905b8154815290600101906020018083116104dd57829003601f168201915b50505050509080600201549080600301805461051590611b76565b80601f016020809104026020016040519081016040528092919081815260200182805461054190611b76565b801561058e5780601f106105635761010080835404028352916020019161058e565b820191906000526020600020905b81548152906001019060200180831161057157829003601f168201915b5050505050908060040160009054906101000a900473ffffffffffffffffffffffffffffffffffffffff16905085565b8051825114610602576040517f08c379a00000000000000000000000000000000000000000000000000000000081526004016105f9906117f4565b60405180910390fd5b6000805b825181101561067057828181518110610648577f4e487b7100000000000000000000000000000000000000000000000000000000600052603260045260246000fd5b60200260200101518261065b91906119d7565b9150808061066890611ba8565b915050610606565b5060648111156106b5576040517f08c379a00000000000000000000000000000000000000000000000000000000081526004016106ac90611794565b60405180910390fd5b6000600260008054815260200190815260200160002090506000548160000181905550868160010190805190602001906106f0929190610ed8565b5085816002018190555084816003019080519060200190610712929190610ed8565b50338160040160006101000a81548173ffffffffffffffffffffffffffffffffffffffff021916908373ffffffffffffffffffffffffffffffffffffffff1602179055508381600501908051906020019061076e929190610f5e565b5082816006019080519060200190610787929190610fe8565b5060008081548092919061079a90611ba8565b919050555050505050505050565b60606000606060006060806000600260008981526020019081526020016000209050806001018160020154826003018360040160009054906101000a900473ffffffffffffffffffffffffffffffffffffffff16846005018560060185805461081090611b76565b80601f016020809104026020016040519081016040528092919081815260200182805461083c90611b76565b80156108895780601f1061085e57610100808354040283529160200191610889565b820191906000526020600020905b81548152906001019060200180831161086c57829003601f168201915b5050505050955083805461089c90611b76565b80601f01602080910402602001604051908101604052809291908181526020018280546108c890611b76565b80156109155780601f106108ea57610100808354040283529160200191610915565b820191906000526020600020905b8154815290600101906020018083116108f857829003601f168201915b505050505093508180548060200260200160405190810160405280929190818152602001828054801561099d57602002820191906000526020600020905b8160009054906101000a900473ffffffffffffffffffffffffffffffffffffffff1673ffffffffffffffffffffffffffffffffffffffff1681526020019060010190808311610953575b50505050509150808054806020026020016040519081016040528092919081815260200182805480156109ef57602002820191906000526020600020905b8154815260200190600101908083116109db575b505050505090509650965096509650965096505091939550919395565b60006002600083815260200190815260200160002090506000816003018054610a3490611b76565b905011610a76576040517f08c379a0000000000000000000000000000000000000000000000000000000008152600401610a6d906117b4565b60405180910390fd5b80600201543414610abc576040517f08c379a0000000000000000000000000000000000000000000000000000000008152600401610ab390611754565b60405180910390fd5b600360003373ffffffffffffffffffffffffffffffffffffffff1673ffffffffffffffffffffffffffffffffffffffff168152602001908152602001600020600083815260200190815260200160002060009054906101000a900460ff1615610b5a576040517f08c379a0000000000000000000000000000000000000000000000000000000008152600401610b51906117d4565b60405180910390fd5b6001600360003373ffffffffffffffffffffffffffffffffffffffff1673ffffffffffffffffffffffffffffffffffffffff168152602001908152602001600020600084815260200190815260200160002060006101000a81548160ff021916908315150217905550600560003373ffffffffffffffffffffffffffffffffffffffff1673ffffffffffffffffffffffffffffffffffffffff1681526020019081526020016000208290806001815401808255809150506001900390600052602060002001600090919091909150553373ffffffffffffffffffffffffffffffffffffffff16827f5f625dedd799630adc266210b8628483c1723c5eebe6dadae5ef462f15e4c7e960405160405180910390a3600034905060005b8260050180549050811015610dc45760006064846006018381548110610cc4577f4e487b7100000000000000000000000000000000000000000000000000000000600052603260045260246000fd5b906000526020600020015434610cda9190611a5e565b610ce49190611a2d565b90508060046000866005018581548110610d27577f4e487b7100000000000000000000000000000000000000000000000000000000600052603260045260246000fd5b9060005260206000200160009054906101000a900473ffffffffffffffffffffffffffffffffffffffff1673ffffffffffffffffffffffffffffffffffffffff1673ffffffffffffffffffffffffffffffffffffffff1681526020019081526020016000206000828254610d9b91906119d7565b925050819055508083610dae9190611ab8565b9250508080610dbc90611ba8565b915050610c75565b5080600460008460040160009054906101000a900473ffffffffffffffffffffffffffffffffffffffff1673ffffffffffffffffffffffffffffffffffffffff1673ffffffffffffffffffffffffffffffffffffffff1681526020019081526020016000206000828254610e3891906119d7565b92505081905550505050565b600160009054906101000a900473ffffffffffffffffffffffffffffffffffffffff1681565b60005481565b6000600360008373ffffffffffffffffffffffffffffffffffffffff1673ffffffffffffffffffffffffffffffffffffffff168152602001908152602001600020600084815260200190815260200160002060009054906101000a900460ff16905092915050565b828054610ee490611b76565b90600052602060002090601f016020900481019282610f065760008555610f4d565b82601f10610f1f57805160ff1916838001178555610f4d565b82800160010185558215610f4d579182015b82811115610f4c578251825591602001919060010190610f31565b5b509050610f5a9190611035565b5090565b828054828255906000526020600020908101928215610fd7579160200282015b82811115610fd65782518260006101000a81548173ffffffffffffffffffffffffffffffffffffffff021916908373ffffffffffffffffffffffffffffffffffffffff16021790555091602001919060010190610f7e565b5b509050610fe49190611035565b5090565b828054828255906000526020600020908101928215611024579160200282015b82811115611023578251825591602001919060010190611008565b5b5090506110319190611035565b5090565b5b8082111561104e576000816000905550600101611036565b5090565b6000611065611060846118c1565b611890565b9050808382526020820190508285602086028201111561108457600080fd5b60005b858110156110b4578161109a8882611168565b845260208401935060208301925050600181019050611087565b5050509392505050565b60006110d16110cc846118ed565b611890565b905080838252602082019050828560208602820111156110f057600080fd5b60005b85811015611120578161110688826111fb565b8452602084019350602083019250506001810190506110f3565b5050509392505050565b600061113d61113884611919565b611890565b90508281526020810184848401111561115557600080fd5b611160848285611b34565b509392505050565b60008135905061117781611cbe565b92915050565b600082601f83011261118e57600080fd5b813561119e848260208601611052565b91505092915050565b600082601f8301126111b857600080fd5b81356111c88482602086016110be565b91505092915050565b600082601f8301126111e257600080fd5b81356111f284826020860161112a565b91505092915050565b60008135905061120a81611cd5565b92915050565b60006020828403121561122257600080fd5b600061123084828501611168565b91505092915050565b6000806040838503121561124c57600080fd5b600061125a85828601611168565b925050602061126b858286016111fb565b9150509250929050565b600080600080600060a0868803121561128d57600080fd5b600086013567ffffffffffffffff8111156112a757600080fd5b6112b3888289016111d1565b95505060206112c4888289016111fb565b945050604086013567ffffffffffffffff8111156112e157600080fd5b6112ed888289016111d1565b935050606086013567ffffffffffffffff81111561130a57600080fd5b6113168882890161117d565b925050608086013567ffffffffffffffff81111561133357600080fd5b61133f888289016111a7565b9150509295509295909350565b60006020828403121561135e57600080fd5b600061136c848285016111fb565b91505092915050565b6000806040838503121561138857600080fd5b6000611396858286016111fb565b92505060206113a785828601611168565b9150509250929050565b60006113bd83836113e1565b60208301905092915050565b60006113d58383611683565b60208301905092915050565b6113ea81611aec565b82525050565b6113f981611aec565b82525050565b600061140a82611969565b61141481856119a4565b935061141f83611949565b8060005b8381101561145057815161143788826113b1565b97506114428361198a565b925050600181019050611423565b5085935050505092915050565b600061146882611974565b61147281856119b5565b935061147d83611959565b8060005b838110156114ae57815161149588826113c9565b97506114a083611997565b925050600181019050611481565b5085935050505092915050565b6114c481611afe565b82525050565b60006114d58261197f565b6114df81856119c6565b93506114ef818560208601611b43565b6114f881611cad565b840191505092915050565b60006115106011836119c6565b91507f496e636f7272656374207061796d656e740000000000000000000000000000006000830152602082019050919050565b60006115506014836119c6565b91507f4e6f2066756e647320746f2077697468647261770000000000000000000000006000830152602082019050919050565b6000611590601a836119c6565b91507f546f74616c2073706c6974206d757374206265203c3d203130300000000000006000830152602082019050919050565b60006115d06013836119c6565b91507f536f6e6720646f6573206e6f74206578697374000000000000000000000000006000830152602082019050919050565b60006116106011836119c6565b91507f416c7265616479207075726368617365640000000000000000000000000000006000830152602082019050919050565b60006116506020836119c6565b91507f436f6e7472696275746f727320616e642073706c697473206d69736d617463686000830152602082019050919050565b61168c81611b2a565b82525050565b61169b81611b2a565b82525050565b60006020820190506116b660008301846113f0565b92915050565b60006020820190506116d160008301846114bb565b92915050565b600060c08201905081810360008301526116f181896114ca565b90506117006020830188611692565b818103604083015261171281876114ca565b905061172160608301866113f0565b818103608083015261173381856113ff565b905081810360a0830152611747818461145d565b9050979650505050505050565b6000602082019050818103600083015261176d81611503565b9050919050565b6000602082019050818103600083015261178d81611543565b9050919050565b600060208201905081810360008301526117ad81611583565b9050919050565b600060208201905081810360008301526117cd816115c3565b9050919050565b600060208201905081810360008301526117ed81611603565b9050919050565b6000602082019050818103600083015261180d81611643565b9050919050565b60006020820190506118296000830184611692565b92915050565b600060a0820190506118446000830188611692565b818103602083015261185681876114ca565b90506118656040830186611692565b818103606083015261187781856114ca565b905061188660808301846113f0565b9695505050505050565b6000604051905081810181811067ffffffffffffffff821117156118b7576118b6611c7e565b5b8060405250919050565b600067ffffffffffffffff8211156118dc576118db611c7e565b5b602082029050602081019050919050565b600067ffffffffffffffff82111561190857611907611c7e565b5b602082029050602081019050919050565b600067ffffffffffffffff82111561193457611933611c7e565b5b601f19601f8301169050602081019050919050565b6000819050602082019050919050565b6000819050602082019050919050565b600081519050919050565b600081519050919050565b600081519050919050565b6000602082019050919050565b6000602082019050919050565b600082825260208201905092915050565b600082825260208201905092915050565b600082825260208201905092915050565b60006119e282611b2a565b91506119ed83611b2a565b9250827fffffffffffffffffffffffffffffffffffffffffffffffffffffffffffffffff03821115611a2257611a21611bf1565b5b828201905092915050565b6000611a3882611b2a565b9150611a4383611b2a565b925082611a5357611a52611c20565b5b828204905092915050565b6000611a6982611b2a565b9150611a7483611b2a565b9250817fffffffffffffffffffffffffffffffffffffffffffffffffffffffffffffffff0483118215151615611aad57611aac611bf1565b5b828202905092915050565b6000611ac382611b2a565b9150611ace83611b2a565b925082821015611ae157611ae0611bf1565b5b828203905092915050565b6000611af782611b0a565b9050919050565b60008115159050919050565b600073ffffffffffffffffffffffffffffffffffffffff82169050919050565b6000819050919050565b82818337600083830152505050565b60005b83811015611b61578082015181840152602081019050611b46565b83811115611b70576000848401525b50505050565b60006002820490506001821680611b8e57607f821691505b60208210811415611ba257611ba1611c4f565b5b50919050565b6000611bb382611b2a565b91507fffffffffffffffffffffffffffffffffffffffffffffffffffffffffffffffff821415611be657611be5611bf1565b5b600182019050919050565b7f4e487b7100000000000000000000000000000000000000000000000000000000600052601160045260246000fd5b7f4e487b7100000000000000000000000000000000000000000000000000000000600052601260045260246000fd5b7f4e487b7100000000000000000000000000000000000000000000000000000000600052602260045260246000fd5b7f4e487b7100000000000000000000000000000000000000000000000000000000600052604160045260246000fd5b6000601f19601f8301169050919050565b611cc781611aec565b8114611cd257600080fd5b50565b611cde81611b2a565b8114611ce957600080fd5b5056fea2646970667358221220b9a500c9832d077d108b20cf60c2c2be04f5903ff82a062242a22111d5a7b57464736f6c63430008000033",
  "immutableReferences": {},
  "source": "pragma solidity ^0.8.0;\n\ncontract MyTunes {\n    uint public nextSongId;\n    address public owner;\n\n    constructor() {\n        owner = msg.sender;\n        nextSongId = 1;\n    }\n\n    // Song info\n    struct Song {\n        uint id;\n        string title;\n        uint price; \n        string ipfsHash;\n        address artist;\n        address[] contributors;\n        uint[] splits; \n    }\n\n    // songId => Song\n    mapping(uint => Song) public songs;\n\n    // user => songId => purchased\n    mapping(address => mapping(uint => bool)) public hasPurchased;\n\n    // address => earnings\n    mapping(address => uint) public balances;\n\n    // address => songs\n    mapping(address => uint[]) public purchasesBy;\n\n    event SongPurchasedBy(uint indexed songId, address indexed buyer);\n\n    // Upload Song\n    function uploadSong(\n        string memory _title,\n        uint _price,\n        string memory _ipfsHash,\n        address[] memory _contributors,\n        uint[] memory _splits\n    ) public {\n        require(_contributors.length == _splits.length, \"Contributors and splits mismatch\");\n\n        uint totalSplit = 0;\n        for (uint i = 0; i < _splits.length; i++) {\n            totalSplit += _splits[i];\n        }\n        require(totalSplit <= 100, \"Total split must be <= 100\");\n\n        Song storage song = songs[nextSongId];\n        song.id = nextSongId;\n        song.title = _title;\n        song.price = _price;\n        song.ipfsHash = _ipfsHash;\n        song.artist = msg.sender;\n        song.contributors = _contributors;\n        song.splits = _splits;\n\n        nextSongId++;\n    }\n\n    // Purchase Song\n    function purchaseSong(uint _songId) public payable {\n        Song storage song = songs[_songId];\n        require(bytes(song.ipfsHash).length > 0, \"Song does not exist\");\n        require(msg.value == song.price, \"Incorrect payment\");\n        require(!hasPurchased[msg.sender][_songId], \"Already purchased\");\n\n        hasPurchased[msg.sender][_songId] = true;\n        purchasesBy[msg.sender].push(_songId);\n        emit SongPurchasedBy(_songId, msg.sender);\n\n        uint remaining = msg.value;\n\n        // Distribute to contributors\n        for (uint i = 0; i < song.contributors.length; i++) {\n            uint share = (msg.value * song.splits[i]) / 100;\n            balances[song.contributors[i]] += share;\n            remaining -= share;\n        }\n\n        // Remaining to main artist\n        balances[song.artist] += remaining;\n    }\n\n    // Withdraw Funds\n    function withdrawFunds() public {\n        uint amount = balances[msg.sender];\n        require(amount > 0, \"No funds to withdraw\");\n\n        balances[msg.sender] = 0;\n        payable(msg.sender).transfer(amount);\n    }\n\n    // Verify Purchase\n    function verifyPurchase(uint _songId, address _buyer) public view returns (bool) {\n        return hasPurchased[_buyer][_songId];\n    }\n\n    // Get Song Details\n    function getSongDetails(uint _songId)\n        public\n        view\n        returns (\n            string memory title,\n            uint price,\n            string memory ipfsHash,\n            address artist,\n            address[] memory contributors,\n            uint[] memory splits\n        )\n    {\n        Song storage song = songs[_songId];\n        return (\n            song.title,\n            song.price,\n            song.ipfsHash,\n            song.artist,\n            song.contributors,\n            song.splits\n        );\n    }\n}\n",
  "sourcePath": "/Users/jeans/Projects/DecentralizedMusicApp/smart-contracts/contracts/MyTunes.sol",
  "compiler": {
    "name": "solc",
    "version": "0.8.0+commit.c7dfd78e.Emscripten.clang"
  },
  "schemaVersion": "3.4.16",
  "updatedAt": "2025-04-23T00:21:25.477Z",
  "networkType": "ethereum",
  "devdoc": {
    "kind": "dev",
    "methods": {},
    "version": 1
  },
  "userdoc": {
    "kind": "user",
    "methods": {},
    "version": 1
  }
}